:020000040800F2
:1000000048070020F5010008FD010008FF01000875
:1000100001020008030200080502000800000000B9
:1000200000000000000000000000000007020008BF
:1000300009020008000000000B020008452100082A
:100040000F0200080F0200080F020008012000083C
:100050000F0200080F0200080D0F00080F02000831
:100060000F0200080F0200080F0200080F0200082C
:100070000F0200080F0200080F0200080F0200081C
:100080000F0200080F0200080F0200080F0200080C
:100090000F0200080F0200080F020008710F00088D
:1000A0000F0200080F0200080F0200080F020008EC
:1000B0000F0200080F0200080F0200080F020008DC
:1000C0000F0200080F0200080F0200080F020008CC
:1000D0000F020008B52100080F0200080F020008F7
:1000E000250F00080F0200080F0200080F02000889
:1000F0000F0200080F0200080F0200080F0200089C
:100100000F0200080F0200080F0200080F0200088B
:100110000F0200080F0200080F0200080F0200087B
:100120000F0200080F0200080F0200080F0200086B
:1001300000F002F800F04FF80AA090E8000C8244AA
:100140008344AAF10107DA4501D100F044F8AFF287
:10015000090EBAE80F0013F0010F18BFFB1A43F0A5
:1001600001031847604C0000804C0000103A24BF87
:1001700078C878C1FAD8520724BF30C830C144BF0C
:1001800004680C607047000000230024002500264E
:10019000103A28BF78C1FBD8520728BF30C148BFEA
:1001A0000B607047642900F0D980732900F09583B3
:1001B000002070471FB59DE8030000F0A9FA00F089
:1001C00029FE04000020002103F0DAF9401C6060E1
:1001D0001FBD10B510BD00F0B3FD1146FFF7EAFFDB
:1001E00002F04AFD00F0DAFD03B4FFF7F2FF03BCB2
:1001F00000F00AFE0948804709480047FEE7FEE78D
:10020000FEE7FEE7FEE7FEE7FEE7FEE7FEE7FEE7C6
:1002100004480549054A064B70470000552100086F
:100220003101000848010020480700204803002051
:100230004803002070B5064600F04EFA056806F146
:100240000B0020F00704B4429CBF002070BD2B4679
:100250006A68BAB11068A04210D304F1080188425C
:100260003CBF5068586007D351681019416011684D
:10027000091B016058601460101D70BD1346526860
:10028000002AE7D12146284600F02EFA0028DED1C8
:1002900070BD00000FB41CB5074B06AA7B4469462D
:1002A0000090059800F0EFFA0020694600F0FEFA91
:1002B0001CBC5DF814FB00000D06000070B5044680
:1002C00085690068C10601D5302600E02026C007F8
:1002D00007D070BDD4E9012130469047206A401C08
:1002E00020626D1EF6D570BD70B504468569007834
:1002F000C00707D170BDD4E9012120209047206AB2
:10030000401C20626D1EF6D570BD70B50C460546CA
:10031000012A05D02878800600D5EA69002302E08A
:10032000012305E05B1C934202D2E05C0028F9D176
:10033000A869E618C01AA861286A184428622846E5
:10034000FFF7BCFF04E0D5E9012114F8010B904749
:10035000B442F8D32846FFF7C7FF70BD2DE9F0413E
:100360000646002410687529314616A510D0AFF353
:100370000080002802DA404213A507E031688A07AE
:1003800001D512A502E0490704D511A5012401E019
:10039000AFF3008000210A2206F1240709E0B0FB38
:1003A000F2FCB0FBF2F302FB1C003030785418462C
:1003B000491C0028F3D123462A463046BDE8F041C7
:1003C00000F003BA000000002D0000002B00000028
:1003D000200000002DE9F05F894604464FF0000A36
:1003E000DFF824B1FB44C0F820A02046E16888472C
:1003F00000287DD0252806D0D4E901219047206A25
:10040000401C2062F1E700255F462046E1688847EE
:100410002028064607DB312E05D2B81910F8200C2B
:1004200008B10543F1E7A80701D525F00405C4F894
:100430001CA00027C4F818A02A2E09D0304601F0CD
:10044000CDFE38B304EB8708303EC8F8186019E0D9
:1004500059F8041B204604EB87029161E168884744
:10046000012F064618D1E069002820DA25F0200582
:100470001DE0D8F8180000EB800006EB4000303893
:10048000C8F818002046E1688847064601F0A6FE35
:100490000028EED1012F0AD02E2E08D12046E16887
:1004A00088477F1C0646022F45F02005C4DBA06963
:1004B000002803DA404245F00105A061E80701D0B9
:1004C00025F01005A6B1A6F14100192802D8203662
:1004D00045F400654A463146204625604D46FFF703
:1004E00061FE60B1012807D0ED1D25F0070000E096
:1004F00007E000F1080978E705F1040975E73046DF
:100500007AE7206ABDE8F09F844900000FB400B587
:100510008DB010A9099000910B904FF0FF300A9018
:1005200000200C90064878440690064878446A46B5
:1005300007900F9909A800F0E9F90DB05DF814FBD8
:10054000030400001B0400002DE9FF5F1D464FF06F
:10055000FF3B91464FF000085F46D5E90146A96987
:1005600001987F1C8847296A824688470028F6D16F
:10057000BAF1FF3F0CD0002E24F4C06419DD6006F0
:1005800014D5BAF12B0F09D0BAF12D0F0ED103E01B
:10059000584604B0BDE8F09F44F48064A96901980E
:1005A0007F1C8847761E8246002E02DDBAF1300F8E
:1005B00003D0B9F1000F26D032E0A969761E019868
:1005C0007F1C44F400748847002E824605DDBAF192
:1005D000780F06D0BAF1580F03D0B9F1000F10D040
:1005E0001EE0B9F1000F02D0B9F1100F18D1A969BE
:1005F000761E01987F1C24F40074884782461020E0
:1006000002E0082000E00A20814609E0A96908FB11
:100610000908761E01987F1C44F4007488478246BE
:10062000002E05DD4946504600F05BF90028EDDA62
:10063000E96901988847A00502D46FF00100A8E796
:10064000E00725D1600613D5600502D5C8F100008A
:1006500000E0404629680A1D2A600968220501D584
:10066000087015E0220701D5088011E008600FE04E
:100670002868011D29600068210502D580F80080E6
:1006800006E0210702D5A0F8008001E0C0F8008054
:1006900038467EE710B5431C02E010F8011B71B12B
:1006A0008107FAD14FF0013202C88C1A8C4314EA48
:1006B000C211F9D0C01A0A0603D0C01E10BDC01A5C
:1006C00010BD0A0401D0801E10BD0902FCD0401EDE
:1006D00010BD70477047704700487047F000002019
:1006E000704770477047704738B504460A46002087
:1006F0006946AFF30080002808BF38BD0246009964
:10070000204600F037F9012038BD012000F010BB71
:10071000F8B5AFF30080054600200C46102000BF5E
:100720000646A819A0420DD9324669460020AFF30B
:100730000080070008BF00F0FBFA0098A04218BF35
:100740000546C419FFF7C8FF05600746F01D20F0F5
:1007500007004619284600F00AF8B44208BFF8BD61
:10076000A21B31463868BDE8F84000F003B900210B
:100770000160C0E9011070471020704770B5044651
:10078000051FFFF7A9FF0068002C14BF446870BD67
:10079000002C18BFAC423CBF20466468F8D3016807
:1007A0000A18AA4218BF456003D12A6805461144B9
:1007B000016028684119A1421CBF6C6070BD61686E
:1007C000696021680844286070BD2DE9F0470D4636
:1007D00099469246044600F124080168880604D52B
:1007E000E06921F01001216000E00120A84201DD54
:1007F000471B00E00027A1697A1902EB0900081ADB
:10080000A0612078C00602D42046FFF757FD0026DD
:1008100008E0D4E901211AF806009047206A401C3C
:10082000761C20624E45F4DB2078C0060AD52046AF
:10083000FFF744FD06E0D4E9012130209047206A0B
:10084000401C2062381EA7F10107F4DC07E0D4E960
:10085000012118F805009047206A401C2062281EDC
:10086000A5F10105F3DC2046FFF73EFD20780006E8
:1008700002D50220BDE8F0870120FBE701694A1C90
:1008800002610878704700B58FB0CDE901310021D1
:10089000059105497944CDE9031011466846FFF7F3
:1008A00099FD0FB000BD0000E5FFFFFF0A6802F8E8
:1008B000010B0A60704710B5436913B1AFF30080B4
:1008C00001E0FFF722FD012010BD127800F12401A4
:1008D0000A7000224A700122EDE711684FF0FF32E2
:1008E000E9E73A2800D2303820F02002412A01D32B
:1008F000A2F13700884201D34FF0FF30704700006B
:10090000026811441378016018467047D1600549A8
:100910007944516104497944116200211161114601
:1009200000F04CB8EDFFFFFF8F000000426842B1BD
:10093000016811F8013B23B1521EC0E900121846AC
:1009400070470121C160881E704742685AB1C36870
:10095000016843B983688B4205D0491E521CC0E927
:100960000012002070474FF0FF307047004870477A
:10097000E8000020034640688C46002818BF8842E3
:100980003CBF03464068F8D318681844884207D033
:100990000CF1030020F00700001D411A521A014615
:1009A000081D0A60FFF7EABE10B5044600F0EEF934
:1009B0000068005D00F0010010BD00002DE9F34F5C
:1009C0004FF0000A0C4656468DB001200C9001F104
:1009D0000C000B9062690B9801219047051E2DD0E9
:1009E000252D2CD0216A8847C0B162690B9801215E
:1009F0009047216A88470028F7D16269411E0B9809
:100A0000904700E0761CA1690D988847216A8847C5
:100A10000028F7D1E1690D988847DBE7A1690D98B7
:100A20008847A842074601D1761CD3E7E1690D98B3
:100A300088477F1C02D1BAF1000F6FD06CE1626968
:100A40000B9800273D46394690472A2804D1626911
:100A50000B98012190470125DFF8D08262690B983D
:100A600001219047A0F130010A290AD24745E5DC6F
:100A700007EB870100EB4107303FDFD445F010055D
:100A8000ECE7E90601D46FF000476C280AD04C2847
:100A900014D0682815D06A280DD074281CD07A2864
:100AA0001AD01DE062690B98012190476C2802D092
:100AB00045F0040514E045F002050DE045F0200581
:100AC0000AE062690B9801219047682802D045F03E
:100AD000080505E045F4006562690B98012190471F
:100AE000C4E9015765283DD019DC58287AD00CDCC0
:100AF000452837D004DC252826D041289ED131E076
:100B000046282FD0472899D12CE05B2877D0612840
:100B100028D063287CD0642823D15AE0F7E06F28DE
:100B200048D008DC66281DD067281BD0692821D052
:100B30006E2816D127E0702845D0732868D0752814
:100B400047D078280DD14DE0A1690D988847252818
:100B500005463FF469AFE1690D9888476D1C3FF485
:100B60006AAFD9E00D9923466A466FF00100AFF3F2
:100B70000080C6E045F0400023464FF00002606070
:100B8000A80736D43EE0E8077FF447AF2068011D90
:100B900021600068290501D506701BE7290701D5EA
:100BA000068017E7A90703D5F117C0E9006111E72F
:100BB00006600FE745F0400023464FF008026060F2
:100BC000A80716D41EE040F60E0125EA0100606079
:100BD00016E045F0400023464FF00A026060A80787
:100BE00007D40FE045F040006060A80708D5234611
:100BF00010220D996FF00100AFF3008081E007E053
:100C0000102223460D996FF00100FFF79DFC78E05C
:100C10004FF0000963284F46C8464B46CB4602D0EA
:100C20005B2807D039E02079C00601D40120A060FC
:100C3000012732E06269D4F80CB00B98012190478B
:100C40005E2807D14FF0010949466269D4F80CB01B
:100C50000B989047216939B900210A4603AB43F844
:100C60002120491C0829FADBD8B3216949B308F1CE
:100C7000010862690B98012190475D28F4D1B9F110
:100C8000000F09D0002003A951F82020D24341F8D9
:100C90002020401C0828F7DB03AB206900282079BE
:100CA0004FEA40701ED05B462246CDF80080CDE969
:100CB00001970D9900286FF0010020DAAFF3008052
:100CC0001FE0C11703AA00EBD1614B1121F01F01F6
:100CD00002EB8302411A136801208840034313602A
:100CE000C7E719E00D99224600286FF00100009730
:100CF00002DAAFF3008004E0AFF3008001E0AFF36D
:100D0000008000280ADA401C06D10C9820B14FF070
:100D1000FF300FB0BDE8F08F5046FAE7E90701D188
:100D20000AF1010A064400200C9053E6CCCCCC0C0E
:100D300010B500F041F8BDE8104000F038B8704739
:100D40007546FFF713FEAE4605006946534620F090
:100D50000700854618B020B5FFF75AFABDE82040D5
:100D60004FF000064FF000074FF000084FF0000B67
:100D700021F00701AC46ACE8C009ACE8C009ACE81A
:100D8000C009ACE8C0098D467047000010B500F0FE
:100D900041F8001D10BD00BFE927000010B5044652
:100DA000AFF300802046BDE81040FFF71DBA0028D1
:100DB00001D000F029B8704710B5012805D00021F6
:100DC00003A000F02BF8012010BD09A1F8E70000F6
:100DD00053494752544D454D3A204F7574206F6624
:100DE0002068656170206D656D6F7279000000008C
:100DF0003A2048656170206D656D6F727920636F70
:100E0000727275707465640001491820ABBEFEE70C
:100E100026000200004870470801002070B5054612
:100E20000C460A2000E06D1C00F011F835B128785E
:100E30000028F8D102E0641C00F009F814B1207811
:100E40000028F8D1BDE870400A20AFF3008008B553
:100E500069468DF800000320ABBE08BD4FF0013C91
:100E600050F8042B51F8043B9A4221D1A2EB0C0319
:100E7000934313EACC1317D150F8042B51F8043BD9
:100E80009A4215D1A2EB0C03934313EACC130BD176
:100E900050F8042B51F8043B9A4209D1A2EB0C0301
:100EA000934313EACC13DBD04FF00000704700BF30
:100EB000D01A01BAB1FA81F101F0180122FA01F059
:100EC000CB40C1F12001DBB2C0B2C01A2CFA01F351
:100ED000D11A914311EAC311E6D17047044A11684F
:100EE00000E000BF024A1268521A8242F9D37047EA
:100EF0000800002000B5034603E04FF47A70FFF7C6
:100F0000EDFF181EA3F10103F7D100BD10B50120BC
:100F100000F05CF820B100F0C5FF012000F050F8AF
:100F200010BD000010B54FF4004000F04FF8D0B1F4
:100F30004FF400410C4800F0C7F8A0B900F0C4FF1E
:100F40000A48007803280AD008480078022803D10C
:100F500000200649087002E00220044908704FF49E
:100F6000004000F02DF810BD000801400C000020EA
:100F700010B5202000F02AF8E0B120210E4800F042
:100F8000A3F8A0B900F08EFF0C48007802280ED01C
:100F90000A48007803280AD008480078012803D1BD
:100FA00000200649087002E0012004490870202052
:100FB00000F006F810BD0000001001400C000020F9
:100FC00001490860704700001404014001460020F8
:100FD0000022074B1B6803EA0102054B14331B6810
:100FE0000B4013B10AB1012000E00020704700005F
:100FF00000040140002123498279002A3AD00A46A0
:10100000126803689A430B461A600A1D1268036847
:101010009A430B1D1A60027911440A6803681A4347
:101020000A60184A0832126803689A43154B08335D
:101030001A601A1D126803689A43124B0C331A6027
:101040004279102A0ED11A1F126803681A430D4BF9
:1010500008331A601A1D126803681A43094B0C33CF
:101060001A600DE00749427911440A6803681A437F
:101070000A6005E0027911440A6803689A430A602D
:10108000704700000004014030B500228B071C0FA0
:101090000F2303FA04F20B4B8C1053F824309343C4
:1010A000084C8D1044F8253023468C1053F824301A
:1010B0008C07240F00FA04F42343024C8D1044F8EB
:1010C000253030BD080001400246002093680B40E7
:1010D0000BB1012000E000207047000070B504460D
:1010E00000261D480588408845431B48808846F6F1
:1010F0000401884216D118488079012812D10020B5
:10110000154988712A2048812B20888100210846B2
:1011100000F086FC0120104988712B2048812A208C
:10112000888103E00021084600F07AFC00F076FE9A
:1011300000260DE04FF480700849086140004861C6
:101140000748046080204861086180000861761CBF
:10115000AE42EFD370BD0000CE0000200010014071
:101160000C0C014010B50446002C60D16649887112
:10117000F02008804FF4A07048800846808849F22B
:10118000413188420BD06048808846F6040188428D
:1011900005D05D48808845F2103188421AD12C2054
:1011A000594908812A2048812B2088810846808857
:1011B00046F60401884205D05348808845F2103134
:1011C000884206D14FF4A0704F4908804FF4F07068
:1011D000488095E04C48808848F68911884207D1BC
:1011E0002220494908814E2048814F20888187E08C
:1011F0004548808845F21051884210D14FF4305054
:10120000414908814FF4285048814FF42C5088817F
:101210004FF4F07008804FF44870488070E022204E
:1012200039490881202048812120888168E00120F7
:10123000354988714FF4A0700880F0204880084636
:10124000808849F24131884205D02F48808845F294
:101250001031884207D12C202B4908812A2048814F
:101260002B20888139E02848808846F6040188428E
:1012700007D12C20244908812B2048812A208881ED
:101280002BE02148808848F68911884207D1222026
:101290001D4908814F2048814E2088811DE01A4851
:1012A000808845F21051884210D14FF430501649D1
:1012B00008814FF4285048814FF42C5088814FF416
:1012C000487008804FF4F070488006E022200E49F4
:1012D000088121204881202088810B48808846F69B
:1012E0000401884205D00848808845F210318842C0
:1012F00006D14FF4F070044908804FF4A070488084
:10130000002000F071F910BDCE00002070B5044639
:101310000D4616469148808849F24131884205D0F1
:101320008E48808845F21031884240D18B494889E7
:1013300000F062FD4FF48070894908614000486107
:101340002012884908608020854948610861800032
:1013500008614010086140004861E0B281490860BE
:1013600080207F4948610861800008617B49888945
:1013700000F042FD4FF480707949086140004861F7
:10138000281278490860802075494861086180000A
:1013900008614010086140004861E8B27149086086
:1013A00080206F494861086180000861B9E06B489E
:1013B000808845F21051884250D16849488900F030
:1013C0001BFD4FF48070664908614000486120129F
:1013D00064490860802062494861086180000861B2
:1013E0005E494989491C88B200F006FD4FF48070BF
:1013F0005B49086140004861E0B25A4908608020BA
:10140000574948610861800008615449888900F0A3
:10141000F3FC4FF480705249086140004861281283
:101420005049086080204E49486108618000086189
:101430004A498989491C88B200F0DEFC4FF480706B
:101440004749086140004861E8B246490860802089
:101450004349486108618000086162E03F48808834
:1014600046F60401884249D13C488079012804D1DC
:101470003A480088401E001B84B23849488900F071
:10148000BBFC4FF48070364908614000486120126F
:101490003449086080203249486108618000086151
:1014A0004010086140004861E0B22E490860802089
:1014B0002B4948610861800008612849888900F04B
:1014C0009BFC4FF480702649086140004861281257
:1014D0002449086080202249486108618000086131
:1014E0004010086140004861E8B21E490860802051
:1014F0001B49486108618000086112E01748807943
:10150000012804D115480088401E001B84B21349ED
:101510004889214600F08AFC10498889294600F054
:1015200085FC4FF480700E494861400048610B48CB
:1015300000890C49086080200949486108618000E1
:10154000086140100861400048610648066080203C
:10155000486108618000086170BD0000CE00002075
:10156000001001400C0C014010B54FF088301749B5
:101570000860091D0860002014490C3108608815B6
:101580001349086140004861402048611148808843
:1015900048F68911884202D10220FFF79FFC0B48D0
:1015A0000830006884B2402009490861C000086121
:1015B0004FF0333005490860091D08604FF6FF7091
:1015C00002490C310860204610BD0000000C0140AB
:1015D00000100140CE00002010B50446204600F067
:1015E0000BFCFFF7C1FF10BDF0B505460024002736
:1015F000F748807901281ED1F548808846F6040115
:10160000884218D0082D15D2DFE805F00406080A34
:101610000C0E101206250DE007250BE0042509E04D
:10162000052507E0012505E0002503E0032501E08D
:10163000022500BF00BFE648808849F24131884258
:1016400011D0E348808846F6040188420BD0E04878
:10165000808845F21031884205D0DD48808845F207
:10166000105188427ED1082D1CD2DFE805F0040617
:10167000090C0F12151800BF14E044F0800411E0AB
:1016800044F040040EE044F0C0040BE044F02004B9
:1016900008E044F0600405E044F0A00402E044F0F7
:1016A000E00400BF00BFCA48808845F2105188425C
:1016B00002D14FF4585700E03627C548808845F2DC
:1016C0001031884207D0C248808845F210518842C4
:1016D00001D044F00804BE48808846F604018842E0
:1016E00001D144F002042146384600F09FFB04F08B
:1016F000200018B9B648807901280DD1B448008877
:10170000B3494988884214DAB14806884088B0490C
:101710000880084646800CE0AD480088AC494988FE
:10172000884206DDAA4806884088A94908800846FC
:101730004680A748808845F2105188427ED1A4494E
:10174000488900F059FB4FF48070A24908614000BD
:1017500048610020A049086080209E4948610861D6
:10176000800000E021E1086199494989491C88B25B
:1017700000F042FB4FF480709649086140004861D8
:1017800000209549086080209249486108618000E6
:1017900008618F494989891C88B200F02DFB4FF4FC
:1017A00080708C4908614000486189480088401E6B
:1017B00000128949086080208649486108618000DC
:1017C000086183494989C91C88B200F015FB4FF4B0
:1017D000807080490861400048617D480078401E63
:1017E000C0B27D49086080207A4948610861800064
:1017F00008617749888900F0FFFA4FF480707549D5
:1018000008614000486100207349086080207149E8
:1018100048610861800008616D498989491C88B266
:1018200000F0EAFA4FF480706A49086140004861AC
:101830000020694908608020664900E034E0486182
:1018400008618000086162498989891C88B200F0BA
:10185000D3FA4FF480705F490861400048615C48EA
:101860004088401E00125C49086080205949486148
:1018700008618000086156498989C91C88B200F056
:10188000BBFA4FF4807053490861400048615048EA
:101890008078401EC0B25049086080204D494861A0
:1018A000086180000861B8E04949488900F0A4FA5D
:1018B0004FF4807047490861400048610020464964
:1018C0000860802043494861086180000861401039
:1018D00008614000486100203F49086080203D4980
:1018E000486108618000086140100861400048615B
:1018F00037480088401E001237490860802035496B
:10190000486108618000086140100861400048613A
:101910002F480078401EC0B22F49086080202D4912
:1019200048610861800008612949888900F064FAEB
:101930004FF4807027490861400048610020264923
:1019400008608020234948610861800008614010D8
:1019500008614000486100201F49086080201D493F
:1019600048610861800008614010086140004861DA
:1019700017484088401E001217490860802015490A
:1019800048610861800008614010086140004861BA
:101990000F488078401EC0B20F49086080200D4972
:1019A000486108618000086137E0082D22D2DFE835
:1019B00005F004070A0D15181B1E44F0300419E049
:1019C00044F0100416E044F0200413E000BF11E0DE
:1019D000CE000020001001400C0C014044F03804FF
:1019E00008E044F0280405E044F0180402E044F064
:1019F000080400BF00BF0948808848F68911884262
:101A000004D1112746F24000044302E0032744F4C6
:101A100080542146384600F009FAF0BDCE0000207F
:101A200030B504460D468448808849F241318842E9
:101A300005D08148808845F21031884240D17E49E6
:101A4000488900F0D9F94FF480707C490861400062
:101A5000486120127A49086080207849486108610D
:101A6000800008614010086140004861E0B274499C
:101A700008608020714948610861800008616E49F2
:101A8000888900F0B9F94FF480706C490861400012
:101A9000486128126A4908608020684948610861E5
:101AA000800008614010086140004861E8B2644964
:101AB0000860802061494861086180000861B9E0E0
:101AC0005D48808846F60401884249D15A488079A9
:101AD000012804D158480088401E001B84B2564992
:101AE000488900F089F94FF480705449086140003A
:101AF00048612012524908608020504948610861BD
:101B0000800008614010086140004861E0B24C4923
:101B100008608020494948610861800008614649A1
:101B2000888900F069F94FF48070444908614000E9
:101B30004861281242490860802040494861086194
:101B4000800008614010086140004861E8B23C49EB
:101B5000086080203949486108618000086169E0B7
:101B60003548808845F21051884250D13249488921
:101B700000F042F94FF4807030490861400048613C
:101B800020122F49086080202C494861086180009C
:101B9000086129494989491C88B200F02DF94FF4A0
:101BA00080702649086140004861E0B2244908601D
:101BB0008020224948610861800008611E498889A7
:101BC00000F01AF94FF480701C4908614000486128
:101BD00028121B490860802018494861086180006C
:101BE000086115498989491C88B200F005F94FF44C
:101BF00080701249086140004861E8B210490860ED
:101C000080200E49486108618000086112E00A489E
:101C10008079012804D108480088401E001B84B246
:101C200005494889214600F001F903498889294678
:101C300000F0FCF830BD0000CE0000200010014094
:101C40000C0C01402DE9F84F0746884616461C4605
:101C5000C3462046E31704EB5373DB1021464FEADB
:101C6000E47C04EB5C7C4FEAEC0CA4EBCC0CBCF108
:101C7000000F02D04FF0010C01E04FF0000C634464
:101C8000224604EBD27C4FEA6C0C03FB0CF3DBB274
:101C90000093A6F12000C6B2002556E00C2C07D117
:101CA00006EB46002B4901EB800010F8059013E08D
:101CB000102C05D1284800EB061010F805900BE019
:101CC000182C07D106EBC600244901EB800010F860
:101CD000059001E0BDE8F88F4FF0000A2FE009F011
:101CE000800030B11E48028841463846FFF70EFB9F
:101CF00007E00A9828B91B48028841463846FFF792
:101D000005FB4FEA49604FEA106908F101001FFA2C
:101D100080F815480088B84200DCDBE7A8EB0B0030
:101D2000A04208D1D846781C87B20F480088B84234
:101D300000DCCFE706E00AF1010000F0FF0ABAF18B
:101D4000080FCCDB00BF681CC5B200988542A5DB3C
:101D500000BFBFE7AC350008203A0008104000087B
:101D60002E00002030000020CE0000202DE9F84792
:101D700004460D4690469946DDE9096704F0FF0ADE
:101D800008EB04001FFA80F809EB05001FFA80F940
:101D900016E0444502DB5446A81985B24D4500DBE8
:101DA00014E0002000903A78334629462046FFF799
:101DB00049FF304606EBD07104EB61018CB27F1C09
:101DC00038787E2802DC38782028E2DA00BFBDE8C7
:101DD000F88700004FF48071054A11614900516194
:101DE00004490860802151611161890011617047C7
:101DF000001001400C0C01404FF48071054A516104
:101E000049005161044908608021516111618900D4
:101E100011617047001001400C0C014000B50249EF
:101E20000889FFF7E9FF00BDCE00002010B5044689
:101E30000B462046FFF7E0FF4FF48070054908612C
:101E400040004861044803608020486108618000C8
:101E5000086110BD001001400C0C01400E48806963
:101E600040F024000C4988610C48006820F00F0005
:101E70000A4908600846006840F003000860084806
:101E8000006820F47060064908600846006840F465
:101E900040700860704700000010024004080140D4
:101EA000001401400648006840F48070044908604E
:101EB0000448006840F004000249086070470000D0
:101EC0000C0801400C140140074800684FF6FF6100
:101ED000084005490860054800684FF6FB71084056
:101EE00002490860704700000C0801400C140140D2
:101EF00070B5002100230F22C47804B3154C246868
:101F000004F4E064C4F5E064210AC1F10403CA40AA
:101F1000447804FA03F184781440214309010E4CFB
:101F20000678A155047804F01F050124AC4005781B
:101F30006D11AD0005F1E025C5F8004109E0047818
:101F400004F01F050124AC40044D0678761145F8D5
:101F5000264070BD0CED00E000E400E080E100E010
:101F600002490143024A1160704700000000FA056F
:101F70000CED00E038B504460D461E48806940F07F
:101F800004001C4988610846806940F480408861EB
:101F90001948006820F47F60174908600846006807
:101FA00040F40B6008601348C06840F48040114959
:101FB000C8600846C06820F48040C86040F27120C4
:101FC0000E490880081D008842F22C0108430B4985
:101FD000091D088025208DF8000003208DF80100E0
:101FE0008DF8020001208DF803006846FFF780FF9E
:101FF00038BD0000001002400408014008380140CC
:1020000010B51448008800F0010038B101F038F82C
:102010001048008820F001000E4908800D48008813
:1020200000F0020040B103200B4908700948008805
:1020300020F00200074908800648008820F00400CC
:102040000449088000BF0348008800F020000028F1
:10205000F9D010BD042800400C00002010B500F09D
:1020600001F810BD0CB500200190009033480068C5
:1020700040F480303149086000BF3048006800F407
:10208000003000900198401C0190009818B9019808
:10209000B0F5A06FF1D12948006800F4003010B10C
:1020A0000120009001E0002000900098012843D119
:1020B0002348006840F01000214908600846006885
:1020C00020F0070008600846006840F00200086041
:1020D0001A48406819494860084640684860084600
:1020E000406840F4806048600846406820F47C10F6
:1020F00048600846406840F4E810486008460068B8
:1021000040F08070086000BF0C48006800F000706C
:102110000028F9D00948406820F0030007494860CA
:102120000846406840F00200486000BF034840682D
:1021300000F00C000828F9D10CBD0000001002408E
:102140000020024002480068401C014908607047B6
:102150000800002010B51348006840F00100114944
:10216000086008464068104908400E494860084623
:1021700000680E4908400B4908600846006820F4D2
:10218000802008600846406820F4FE0048604FF454
:102190001F008860FFF762FF4FF00060044908608D
:1021A00010BD0000001002400000FFF8FFFFF6FE27
:1021B00008ED00E010B50748008800F0200038B1B5
:1021C0000448001D0088C4B22146034800F0C2FE46
:1021D00010BD0000003801403400002030380A28CB
:1021E00001D20120704700207047000000B58DB07B
:1021F0004448027844A103A8FEF74CF803A8102134
:102200000B466422CDE900108C211E20FFF7AEFDA5
:1022100000F036FF3E48807800903D4843780278D1
:102220003CA103A8FEF736F803A810210B46D222E2
:10223000CDE9001050211E20FFF798FD3448C079E9
:10224000009033488379828837A103A8FEF722F8EB
:1022500003A810210B46D222CDE9001064211E20D4
:10226000FFF784FD2A48007A344951F8202034A130
:1022700003A8FEF70FF803A810210B46D222CDE9E0
:10228000001078211E20FFF771FD2F488078009004
:102290002D48437802782DA103A8FDF7FBFF03A882
:1022A00010210B46D222CDE90010A0211E20FFF7FD
:1022B0005DFD2548C07900902348837982882AA152
:1022C00003A8FDF7E7FF03A810210B46D222CDE9B2
:1022D0000010B4211E20FFF749FD1B48007A174962
:1022E00051F8202027A103A8FDF7D4FF03A810214F
:1022F0000B46D222CDE90010C8211E20FFF736FD83
:102300000DB000BD0C0000204D6F64653A256400DF
:10231000DC00002054696D653A253032643A25307E
:1023200032643A2530326400446174653A253034B1
:10233000642D253032642D253032640010000020D9
:102340005765656B3A25730044000020416C61724B
:102350006D2054696D653A253032643A2530326417
:102360003A25303264000000416C61726D20446196
:1023700074653A253034642D253032642D25303291
:1023800064000000416C61726D205765656B3A25F1
:102390007300000010B58EB000200390484802780A
:1023A00048A104A8FDF776FF48A010210B46D222D1
:1023B000CDE9001050211E20FFF7D8FC49A01021C4
:1023C0000B46D222CDE9001064211E20FFF7CEFC7F
:1023D0004AA010210B46D222CDE9001078211E2000
:1023E000FFF7C4FC04A810210B466422CDE90010BD
:1023F0008C211E20FFF7BAFC03A9454800F092FD8E
:1024000028B39DF80C000A2803D09DF80C000D2875
:102410000FD140480078002819DD00203E493D4A90
:102420001278885401203D4908700020394908700D
:102430000DE0384800787F2809D29DF80C10354807
:1024400002780078401C334B18703348815433486D
:102450000078002831D032492F4800F017FD10B322
:1024600000202E4908702E4880782D4949782C4C40
:10247000CDE900102378E279A179A08801F026F84F
:102480002346DA799979988800F088FE2146087207
:1024900024A010210B46D222CDE90010A0211E203D
:1024A000FFF764FC09E024A010210B46D222CDE9FD
:1024B0000010A0211E20FFF759FC0EB010BD000037
:1024C0000C0000204D6F64653A25640074696D65E9
:1024D0002069732073657474696E672E2E2E2E2EFC
:1024E0002E00000054686520696E70757420666F58
:1024F000726D61742069733A00000000666F726D3E
:1025000061743A787878782D78782D787820000082
:10251000340000202C0000204E0000202D00002060
:10252000DC000020536574757020737563636573F8
:102530007366756C000000005365747570206167E8
:1025400061696E0010B58EB00020039058A0102174
:102550000B46D222CDE9001050211E20FFF706FCC9
:102560005948027859A104A8FDF794FE04A8102147
:102570000B466422CDE9001011461E20FFF7F6FB42
:1025800003A9544800F0CEFC28B39DF80C000A289B
:1025900003D09DF80C000D280FD14F48007800287B
:1025A00019DD00204D494C4A1278885401204C49CD
:1025B00008700020484908700DE0474800787F28DF
:1025C00009D29DF80C10444802780078401C424B18
:1025D00018704248815442480078002865D041492B
:1025E0003E4800F053FC002855D000203C490870BC
:1025F0003C4880783B4949783A4CCDE90010237833
:10260000E279A179A08800F01BFF20468078009035
:1026100020464378027834A104A8FDF73BFE04A8C5
:1026200010210B46D222CDE9001078211E20FFF7A1
:102630009DFB2046C079009020468379828831A195
:1026400004A8FDF727FE04A810210B46D222CDE9ED
:1026500000108C211E20FFF789FB2046007A3049AC
:1026600051F820202FA104A8FDF714FE04A8102182
:102670000B46D222CDE90010A0211E20FFF776FBE9
:102680002CA010210B46D222CDE90010B4211E202F
:10269000FFF76CFB09E02CA010210B46D222CDE9FC
:1026A0000010A0211E20FFF761FB0EB010BD00003E
:1026B000616C61726D20697320736574696E672E39
:1026C0002E2E2E2E2E0000000C0000204D6F646573
:1026D0003A256400340000202C0000204E00002029
:1026E0002D00002044000020416C61726D2054696F
:1026F0006D653A253032643A253032643A253032FD
:1027000064000000416C61726D20446174653A257B
:102710003034642D253032642D25303264000000C1
:1027200010000020416C61726D205765656B3A2581
:10273000730000005365747570207375636365736F
:102740007366756C000000005365747570206167D6
:1027500061696E0010B58CB0052444E025A01021FD
:102760000B46D222CDE9001050211E20FFF7FEFAC1
:102770002648027826A102A8FDF78CFD02A81021A8
:102780000B466422CDE9001011461E20FFF7EEFA39
:10279000224621A102A8FDF77DFD02A810210B46CB
:1027A000D222CDE9001078211E20FFF7DFFA20A009
:1027B00010210B46D222CDE900108C211E20FFF7FC
:1027C000D5FA012C09D120A010210B46D222CDE947
:1027D0000010A0211E20FFF7C9FA4FF47A70FEF70F
:1027E00089FB601EC4B2002CB8DC002007490870C9
:1027F0000CB010BD616C61726D2069732072696EDE
:1028000067696E672E2E2E2E2E2E00000C000020E3
:102810004D6F64653A256400636F756E74646F77FD
:102820006E206C617374696E673A256473000000F2
:102830002020202020202020202020202020202098
:102840002020202000000000616C61726D20656E08
:102850006400000010B53D20FE4988614FF0007013
:10286000FD494860FD4840686FF30B00FB49486034
:102870000846406840F233310843F849486008464A
:10288000006820F07F4008600846006840F04C5027
:1028900008600846C06840F4F860C8604FF0333004
:1028A000EF490860091F08604FF6FF70EC490831D6
:1028B00008604CF25030FEF711FB01210020FFF7B9
:1028C000B5FA4CF25030FEF709FB0020FEF784FE0B
:1028D000E449888008468088FF280ADB084680880B
:1028E0004FF6FF71884204D0DE488088B0F5134F60
:1028F0007ED1D320FFF780FAFEF736FEFEF734FED6
:10290000FEF732FED7498880084680884FF6FF716F
:1029100001EA0020D3498880FEF726FED149898844
:102920000843D04988800846808849F2413188426E
:102930006CD0BF20FFF760FAFEF716FEFEF714FE1C
:10294000FEF712FEFEF710FEC64988800846808812
:102950004FF6FF7101EA0020C2498880FEF704FEAD
:10296000C04989880843BF4988800846808846F660
:10297000040188424AD0D420FFF73EFAFEF7F4FD66
:10298000FEF7F2FDFEF7F0FDB64988800846808824
:102990004FF6FF7101EA0020B2498880FEF7E4FD9E
:1029A000B04989880843AF4988800846808845F245
:1029B000103188422AD04FF45A40FFF71DFAFEF733
:1029C000D3FD4FF45B40FFF717FAFEF7CDFDA549A5
:1029D0008880084680884FF6FF7101EA0020A149EF
:1029E00088804FF45C40FFF707FAFEF7BDFD00E07A
:1029F0000CE09C49898808439A4988800846808869
:102A0000B0F5004F02D145F210508880954880887B
:102A100049F2413188427CD1CF20FFF7EDF9002007
:102A2000FFF7D8F9C120FFF7D5F93020FFF7D2F929
:102A3000ED20FFF7E1F96420FFF7CCF90320FFF761
:102A4000C9F91220FFF7C6F98120FFF7C3F9E82082
:102A5000FFF7D2F98520FFF7BDF91020FFF7BAF98B
:102A60007A20FFF7B7F9CB20FFF7C6F93920FFF737
:102A7000B1F92C20FFF7AEF90020FFF7ABF93420B5
:102A8000FFF7A8F90220FFF7A5F9F720FFF7B4F93F
:102A90002020FFF79FF9EA20FFF7AEF90020FFF7AB
:102AA00099F90020FFF796F9C020FFF7A5F91B2040
:102AB000FFF790F9C120FFF79FF90120FFF78AF98E
:102AC000C520FFF799F93020FFF784F93020FFF790
:102AD00081F9C720FFF790F9B720FFF77BF936207F
:102AE000FFF78AF94820FFF775F93A20FFF784F9D4
:102AF0005520FFF76FF9B120FFF77EF90020FFF7AF
:102B000069F91A20FFF766F9B620FFF775F90A2070
:102B100000E097E0FFF75EF9A220FFF75BF9F220F3
:102B2000FFF76AF90020FFF755F92620FFF764F94F
:102B30000120FFF74FF9E020FFF75EF90F20FFF7C4
:102B400049F92A20FFF746F92820FFF743F9082022
:102B5000FFF740F90E20FFF73DF90820FFF73AF99B
:102B60005420FFF737F9A920FFF734F94320FFF786
:102B700031F90A20FFF72EF90F20FFF72BF900207B
:102B8000FFF728F90020FFF725F90020FFF722F9C9
:102B90000020FFF71FF9E120FFF72EF90020FFF7D3
:102BA00019F91520FFF716F91720FFF713F9072079
:102BB000FFF710F91120FFF70DF90620FFF70AF9CA
:102BC0002B20FFF707F95620FFF704F93C20FFF709
:102BD00001F90520FFF7FEF81020FFF7FBF80F20A2
:102BE000FFF7F8F83F20FFF7F5F83F20FFF7F2F87E
:102BF0000F20FFF7EFF82B20FFF7FEF80020FFF77C
:102C0000E9F80020FFF7E6F80120FFF7E3F83F209E
:102C1000FFF7E0F82A20FFF7EFF80020FFF7DAF8D7
:102C20000020FFF7D7F80020FFF7D4F8EF20FFF7D8
:102C3000D1F81120FFF7E0F80B48FEF74FF92920F3
:102C4000FFF7DAF80020FEF78DFA4FF480600349B1
:102C500008610BE00010024000000140001001403C
:102C6000040C0140CE000020C0D401004FF6FF70DC
:102C7000FEF734FA10BD0000002400BF4FF4A0603E
:102C8000FFF76EF94821481EB0F1807F00D31BE0AA
:102C9000481E4FF0E022506150170F22002804DB3D
:102CA00013071D0E2B4B1D5406E013071E0E2A4B57
:102CB00000F00F052D1F5E5500BF00204FF0E022F1
:102CC00090610720106100BF00F090FAFFF7C2FD8D
:102CD000FFF7C4F84FF4E1314820FFF74BF98021AA
:102CE0001E4800F04EF900F03FF832E01C48007832
:102CF0001C490978884207D04FF6FF70FEF7EEF9BD
:102D0000174800781749087015480078032802D141
:102D1000FFF720FD18E012480078022802D1FFF7E3
:102D200011FC11E00E480078012802D1FFF732FBB8
:102D30000AE00B48007838B90A2094FBF0F100FB58
:102D4000114008B9FFF752FA0A20FEF7C7F8601CD5
:102D5000C4B2CBE700E400E018ED00E0340000204E
:102D60000C0000200D0000200EB54548806940F0A1
:102D70000400434988610846806940F0100088617A
:102D80000846806940F0010088613E48006820F0F4
:102D90000F003C4908600846006840F008000860E1
:102DA000081D006820F07040091D08600846006892
:102DB00040F00040086033480C30006840F40040A8
:102DC00030490C3108603048006820F470002E490A
:102DD00008600846006840F4000008600846C068C3
:102DE00040F02000C8604FF4A060FFF7B9F806205B
:102DF0008DF8080002208DF809008DF80A000120E6
:102E00008DF80B0002A8FFF773F828208DF8080052
:102E100000208DF80A0002A8FFF76AF817208DF845
:102E2000080001208DF80A0002A8FFF761F80021D0
:102E30000846FEF729F90120009000208DF80400D3
:102E400008208DF8050001208DF806006846FEF781
:102E5000D1F805210220FEF717F9202000900C2060
:102E60008DF805006846FEF7C5F80F210020FEF733
:102E70000BF94FF4004000906846FEF7BBF80EBD1A
:102E800000100240000801400010014030B585B03C
:102E900005460C462846FDF7FDFB132802DA002004
:102EA00005B030BDA01C611C821DCDE90124CDE917
:102EB0000310E01DA31D221D11A100902846FDF75F
:102EC00025FB072819D1A079012816DBA0790C2849
:102ED00013DCE079012810DBE0791F280DDC207A73
:102EE00006280ADC2078172807DC60783B2804DCF9
:102EF000A0783B2801DC0120D2E70020D0E70000C9
:102F00002568752D256868752D25686875202568E4
:102F1000687520256868753A256868753A25686877
:102F20007500000010B503460C46184600F03AF84C
:102F300070B95968481C58601868405C2070D9689E
:102F40005868B0FBF1F201FB12005860012010BD7F
:102F50000020FCE730B504460D46204600F02BF873
:102F600068B9A168481CA06020684554D4E90201F2
:102F7000B0FBF1F201FB1200A060012030BD002087
:102F8000FCE770B504460D462846FDF753F920606E
:102F900000206060A060E560206808B1012070BD7D
:102FA0000020FCE70146D1E90120904201D1012037
:102FB00070470020FCE701468868401CCA68B0FBE7
:102FC000F2F302FB13004A68904201D101207047DE
:102FD0000020FCE72DE9FF4F04460D4669B2A1F140
:102FE00002084FFA88F8B8F1000107DC01F10C087B
:102FF0004FFA88F1A4F101081FFA88F44FF0640930
:1030000094FBF9FA4FEAE47904EB99794FEAA90BBA
:10301000A4F1010940F26D1E09FB0EB9A9EB0A09E2
:103020004FF4C87A94FBFAFA09EB0A0340F26F18DE
:1030300001FB08F84FF00C0998FBF9F808F11D06A0
:10304000571E03EB0608B844DFF83090A8EB090CD4
:103050000CEB4C09DDF80C8008EBC908C8EB08192B
:10306000DDF8348008EB8908C8EB0819DDF83880F2
:1030700008EB890004B0BDE8F08F00003AF90A00BF
:10308000FEB50026002400253DA2D2E9001092687A
:10309000CDE9010200913D4806883604001D0088F4
:1030A00006443B48B6FBF0F43A480088A0423AD0C8
:1030B00038490C8040F2B2750EE0284600F09CF9C9
:1030C00030B1B4F5B77F02D3A4F5B77402E006E0DF
:1030D000A4F26D14681C85B2B4F5B67FEDD800BFBC
:1030E0002D488580002516E02B49888800F084F95A
:1030F00030B1012D04D11D2C01D31D3C09E00CE0A1
:103100001DF80500A04203D81DF80500241A00E0B0
:1031100003E0681C85B21C2CE6D200BF681C1E4967
:103120008871601CC8711A48B6FBF0F100FB11648D
:103130004FF46160B4FBF0F0174908704FF4616020
:10314000B4FBF0F100FB11403C21B0FBF1F012495F
:1031500048704FF46160B4FBF0F100FB11403C217A
:10316000B0FBF1F201FB12000B4988700B46DA79D3
:103170009979988800F012F807490872FEBD00009E
:103180001F1C1F1E1F1E1F1F1E1F1E1F1828004052
:103190008051010032000020DC00002070B50346A1
:1031A0000020032904DA01F10C04E1B25C1EA3B291
:1031B0004C1C04EB4404052594FBF5F5541C022635
:1031C00006FB01442C441C4404EBA304642593FB3C
:1031D000F5F5641B4FF4C87593FBF5F52C440725F2
:1031E00094FBF5F605FB1644E0B270BDFEB5002673
:1031F000C824002500277D48C06940F080507B49E5
:10320000C8610846C06940F00060C861784800683D
:1032100040F4807076490860002000F007F9064607
:1032200045F2500086427DD07048006A40F48030FC
:103230006E4908620846006A20F480300862084639
:10324000006A40F00100086204E0601E84B20520BC
:10325000FDF744FE2CB16548006A00F0020000282A
:10326000F3D06248056A25F44075ACB9406A40F075
:1032700001005E49486200BF5C48406A00F00200FD
:103280000028F9D045F4007549F63F4745F2510151
:10329000002000F063F908E045F4807547F6FF77F9
:1032A00045F25001002000F059F945F400454F481F
:1032B000056200BF4F48008800F020000028F9D0C8
:1032C00000BF4C48008800F008000028F9D04948A9
:1032D000001F008840F001004649091F088000BF18
:1032E0004448008800F020000028F9D041480088B8
:1032F00040F010003F4908800020091D0880091D8A
:103300000F803C48008820F010003A49088000BF38
:103310003848008800F020000028F9D045F251001C
:10332000864200E00CE04DD000200D210B2313223B
:10333000CDE90010194640F2E97000F0C7F841E00D
:103340001E2404E00520FDF7C9FD601E84B2294853
:10335000008800F0080008B9002CF3D16424254847
:10336000103005880AE00520FDF7B8FD601E84B224
:10337000204810300088A84200D001E0002CF2D193
:1033800000BF84B94FF6FF71002000F0E7F84FF45A
:103390008030164908620A20FDF7A0FD002013497D
:1033A00008620120FEBD1348001F008840F00100A4
:1033B0001049091F088000BF0E48008800F0200057
:1033C0000028F9D003208DF8080000208DF80900AE
:1033D00002208DF80A0001208DF80B0002A8FEF7EC
:1033E00087FDFFF74DFE0020DCE7000000100240E3
:1033F00000700040042800400146CA1701EB927299
:103400009210A1EB82022AB9642291FBF2F302FB33
:10341000131232B94FF4C87291FBF2F302FB13128C
:103420000AB9012070470020FCE700000146002295
:10343000024800EB8102108870470000046C0040D5
:103440002DE9FC4705460E4617469846DDE90A9ADF
:10345000002443463A4631462846CDE9009AFFF714
:10346000B9FD04461648C06940F080501449C8614F
:103470000846C06940F00060C8611248006840F426
:103480008070104908601048008840F010000E4914
:1034900008800D4920310C80200C091F08800A4843
:1034A000008820F010000849088000BF0648008806
:1034B00000F020000028F9D00020BDE8FC870000C3
:1034C0000010024000700040042800402DE9FC4735
:1034D00005460E4617469846DDE90A9A00244346FB
:1034E0003A4631462846CDE9009AFFF773FD044677
:1034F0001748C06940F080501549C8610846C06946
:1035000040F00060C8611348006840F480701149C1
:1035100008601148008840F010000F4908800E49EB
:1035200018310C80200C091F08800B48008820F0FF
:1035300010000949088000BF0748008800F02000FB
:103540000028F9D0FFF79CFD0020BDE8FC870000B3
:1035500000100240007000400428004010B5002216
:10356000054B1B6843F48073034C2360034B03EB50
:103570008002118010BD000000700040046C00400B
:1035800010B500290AD00878002807D005487844EB
:10359000FDF764FC002801D0002010BD02487844EB
:1035A00010BD0000561800004E180000000000007A
:1035B0000000000000000000000000003F4000008C
:1035C000000000000000300040003000400000001B
:1035D00009000BC03D000BC03D00090018C024408D
:1035E0007FE0224031800000180024C01B000D80C5
:1035F0003240018003801C4027401C80074000406F
:10360000100060000000000000000000000000004A
:1036100000001F80204040200000402020401F80EC
:1036200000000000090006001F80060009000000DD
:10363000040004003F80040004000000001000604B
:10364000000000000000000004000400040004006A
:103650000400000000000040000000000000000026
:10366000002001C006003800400000001F802040FC
:10367000204020401F800000000010403FC000405C
:103680000000000018C021402240244018400000E3
:1036900010802040244024401B80000002000D00C8
:1036A00011003FC0014000003C80244024402440E1
:1036B000238000001F802440244034400380000009
:1036C0003000200027C03800200000001B8024406C
:1036D000244024401B8000001C0022C022402240C5
:1036E0001F800000000000000840000000000000F3
:1036F0000000000004600000000000000000040062
:103700000A0011002080404009000900090009005A
:103710000900000000004040208011000A00040061
:103720001800200023402400180000001F802040C3
:10373000274029401F400000004007C039000F000B
:1037400001C0004020403FC0244024401B800000B6
:103750001F802040204020403080000020403FC09B
:10376000204020401F80000020403FC024402E40C9
:1037700030C0000020403FC024402E003000000038
:103780000F001080204022403380020020403FC0C4
:10379000040004003FC02040204020403FC02040A3
:1037A000204000000060202020203FC0200020009A
:1037B00020403FC024400B0030C0204020403FC08C
:1037C00020400040004000C03FC03C0003C03C001F
:1037D0003FC0000020403FC00C4023003FC02000FD
:1037E0001F802040204020401F80000020403FC01C
:1037F00024402400180000001F802140214020E0C8
:103800001FA0000020403FC02440260019C00040F7
:1038100018C0244024402240318000003000204065
:103820003FC020403000000020003F8000400040AA
:103830003F80200020003E0001C00700380020002B
:10384000380007C03C0007C038000000204039C0E5
:10385000060039C0204000002000384007C0384032
:1038600020000000304021C02640384020C0000029
:10387000000000007FE040204020000000007000B9
:103880000C000380004000000000402040207FE04A
:1038900000000000000020004000200000000000A8
:1038A00000100010001000100010001000000000B8
:1038B00040000000000000000000028005400540BC
:1038C00003C0004020003FC00440044003800000CB
:1038D0000000038004400440064000000000038014
:1038E000044024403FC000400000038005400540E4
:1038F00003400000000004401FC02440244020007A
:10390000000002E0055005500650042020403FC052
:103910000440040003C000400000044027C00040F1
:103920000000000000100010041027E0000000005C
:1039300020403FC00140070004C004402040204018
:103940003FC000400040000007C0040007C0040062
:1039500003C00000044007C00440040003C000404E
:10396000000003800440044003800000041007F0BE
:103970000450044003800000000003800440045011
:1039800007F00010044007C00240040004000000DB
:10399000000006400540054004C00000000004008F
:1039A0001F800440004000000400078000400440E5
:1039B00007C000400400070004C0018006000400A6
:1039C000060001C0070001C006000000044006C058
:1039D000010006C0044000000410071004E001804C
:1039E000060004000000044005C00640044000003A
:1039F0000000000004007BE0402000000000000008
:103A00000000FFF000000000000040207BE0040008
:103A10000000000040008000400020002000400026
:103A20000000000000000000000000000000000096
:103A30000000000000001FCC000C0000000000008F
:103A40000000080030006000080030006000000046
:103A5000022003FC1E20022003FC1E200220000086
:103A600000000E1811043FFF10840C7800000000C5
:103A70000F0010840F3800C0077818840078000009
:103A800000780F8410C411240E9800E4008400080C
:103A90000800680070000000000000000000000046
:103AA00000000000000007E0181820044002000099
:103AB000000040022004181807E000000000000089
:103AC0000240024001800FF00180024002400000ED
:103AD0000080008000800FF80080008000800000DF
:103AE0000001000D000E00000000000000000000BA
:103AF0000000008000800080008000800080008046
:103B00000000000C000C000000000000000000009D
:103B10000000000600180060018006001800200068
:103B2000000007F0080810041004080807F000005F
:103B30000000080408041FFC00040004000000004A
:103B400000000E0C10141024104411840E0C000000
:103B500000000C1810041104110412880C700000ED
:103B6000000000E00320042408241FFC00240000BF
:103B700000001F98108411041104108810700000B8
:103B8000000007F008881104110418880070000074
:103B900000001C00100010FC13001C0010000000AE
:103BA00000000E3811441084108411440E380000B7
:103BB00000000700088C10441044088807F000003B
:103BC000000000000000030C030C000000000000D7
:103BD00000000000000101060000000000000000DD
:103BE00000000080014002200410080810040000BA
:103BF00002200220022002200220022002200000D7
:103C00000000100408080410022001400080000099
:103C100000000E001200100C106C10800F0000004D
:103C200003E00C1813E4142417C4082807D000007C
:103C30000004003C03C41C40074000E4001C0004D6
:103C400010041FFC1104110411040E880070000000
:103C500003E00C1810041004100410081C100000DD
:103C600010041FFC100410041004080807F00000E2
:103C700010041FFC1104110417C4100408180000DC
:103C800010041FFC1104110017C0100008000000F0
:103C900003E00C181004100410441C7800400000CD
:103CA00010041FFC10840080008010841FFC10048E
:103CB0000000100410041FFC100410040000000099
:103CC00000030001100110011FFE10001000000091
:103CD00010041FFC110403801464181C100400005D
:103CE00010041FFC1004000400040004000C000079
:103CF00010041FFC1F0000FC1F001FFC100400002C
:103D000010041FFC0C04030000E010181FFC10003E
:103D100007F00808100410041004080807F0000059
:103D200010041FFC10841080108010800F00000011
:103D300007F0081810241024101C080A07F20000CD
:103D400010041FFC1104110011C011300E0C0004EE
:103D500000000E1C11041084108410441C38000054
:103D60001800100010041FFC1004100018000000C0
:103D700010001FF810040004000410041FF81000C5
:103D800010001E0011E0001C007013801C001000C9
:103D90001FC0103C00E01F0000E0103C1FC00000EE
:103DA0001004180C163401C001C01634180C10048D
:103DB00010001C00130400FC13041C001000000081
:103DC0000804101C1064108413041C041018000054
:103DD0000000000000007FFE4002400240020000A0
:103DE000000030000C0003800060001C0003000095
:103DF00000004002400240027FFE00000000000080
:103E000000000000200040004000400020000000B2
:103E1000000100010001000100010001000100019A
:103E200000004000400020000000000000000000F2
:103E300000000098012401440144014400FC0004F6
:103E400010001FFC008801040104008800700000BD
:103E500000000070008801040104010400880000D3
:103E60000000007000880104010411081FFC000418
:103E7000000000F8014401440144014400C800006E
:103E80000000010401040FFC1104110411001800CA
:103E9000000000D601290129012901C901060000FD
:103EA00010041FFC008401000100010400FC000458
:103EB00000000104190419FC0004000400000000C3
:103EC0000000000300010101190119FE00000000BB
:103ED00010041FFC0024004001B4010C0104000088
:103EE0000000100410041FFC000400040000000087
:103EF000010401FC0104010001FC0104010000FCBB
:103F0000010401FC008401000100010400FC000424
:103F1000000000F8010401040104010400F800009D
:103F2000010101FF00850104010400880070000008
:103F300000000070008801040104010501FF000178
:103F40000104010401FC008401040100018000005F
:103F5000000000CC01240124012401240198000068
:103F600000000100010007F8010401040000000046
:103F7000010001F8000400040004010801FC000431
:103F8000010001800170000C00100160018001003F
:103F900001F0010C003001C00030010C01F0010003
:103FA00000000104018C00740170018C0104000008
:103FB000010101810171000E001801600180010002
:103FC00000000184010C013401440184010C000053
:103FD000000000000000000001003EFC4002400222
:103FE0000000000000000000FFFF000000000000D3
:103FF0000000400240023EFC010000000000000002
:104000000000600080008000400040002000200090
:1040100000000000000000000000000000000000A0
:104020000000000000000000000000000000000090
:104030000000000000000000000000000000000080
:104040000000000F80380FFE380F8038000000009D
:10405000000000000000000000000000000001005F
:10406000000600000C0000380000310000060000CF
:104070000C000038000030000000000000000000CC
:1040800061800067F807F98000618000618000614D
:10409000800061800067F807F980006180000000FF
:1040A00000000000000001C0E003E0F0063008045A
:1040B00018081FFFFE040E080787F00381E00000C8
:1040C0000000000001F000060C00040408060C705B
:1040D00001F9C0000E00003BE000EC1807080804DE
:1040E0000C180003E00000000001E00007F003F8F6
:1040F00018041C0804170807E1D003C0E00023B02F
:10410000003C080020080000100000000000000132
:1041100000003100003200001C0000000000000020
:10412000000000000000000000000000000000008F
:10413000000000000000000000000000000000007F
:104140007F0001FFC00780F00C0018100004200061
:10415000020000000000002000021000040C001803
:104160000780F001FFC0007F000000000000000099
:104170000000000000000000000000004200006697
:1041800000006600003C0000180003FFC00018009B
:10419000003C0000660000660000420000000000D5
:1041A000080000080000080000080000080001FFE7
:1041B000C000080000080000080000080000080017
:1041C00000000000000100003100003200001C006F
:1041D00000000000000000000000000000000000DF
:1041E00000000000000000000800000800000800B7
:1041F0000008000008000008000008000008000097
:10420000080000080000000000000000000000009E
:1042100038000038000038000000000000000000F6
:10422000000000000000000000000000000000008E
:10423000000600001C000070000180000E00003825
:104240000000C0000700001C00003000000000005B
:10425000000000007F8001FFE0038070060018046A
:10426000000804000806001803807001FFE0007FCA
:1042700080000000000000000000010008010008AC
:1042800001000803FFF807FFF8000008000008001D
:10429000000800000000000000000001C03802C05B
:1042A00058040098040118040218040418061C1885
:1042B00003F81801E0F80000000000000000000111
:1042C000C0E003C0F0040008040808040808061849
:1042D0000803F41801E7F00001E00000000000000E
:1042E000000000000300000D00001100006100004C
:1042F000810803010807FFF80FFFF800010800011B
:10430000080000000000000000E007FCD0060808DC
:10431000061008061008061008061838060FF006E2
:1043200007C0000000000000000000003F8001FF07
:10433000E003843002081804100804100804100870
:10434000071810030FF00007C00000000000000075
:10435000000003C0000700000600000600F8060782
:10436000F806180006E00007000006000000000044
:1043700000000001E1E003F7F0063410041808041F
:104380001808040C08040C0806161803F3F001C101
:10439000E000000000000000F80003FC30030638D5
:1043A0000402080402080402080404100308F001CF
:1043B000FFC0007F000000000000000000000000BF
:1043C00000000000000000007038007038007038F5
:1043D00000000000000000000000000000000000DD
:1043E000000000000000000000000000301A003053
:1043F0001C000000000000000000000000000000A1
:10440000000000000000000800001400002200006E
:1044100041000080800100400200200400100800DC
:104420000800000000000000210000210000210021
:1044300000210000210000210000210000210000D7
:104440002100002100000000000000000000080022
:10445000080400100200200100400080800041009C
:10446000002200001400000800000000000000030B
:10447000C00004C000040000080038080F38080815
:10448000380810000C300007E00003C000000000F6
:10449000000000003F8000FFE0038070020F100664
:1044A000708804C088048308047F8802C0900301D8
:1044B0002000FE400000080000180001F8003E083F
:1044C00001C20007020007E20000FE00001FC80052
:1044D00001F800003800000804000807FFF807FF93
:1044E000F80408080408080408080408080618085E
:1044F00003F41801E7F00001E000000000000000F4
:104500003F8001FFE00380700200180400080400EF
:10451000080400080400100600200780C000000006
:1045200004000807FFF807FFF80400080400080467
:10453000000804001802001003807001FFE0007FF3
:104540008000000004000807FFF807FFF8040808CF
:10455000040808040808040808043E0804000806C3
:10456000001801006000000004000807FFF807FFC2
:10457000F8040808040800040800040800043E00C9
:10458000060000060000018000000000000000009E
:104590003F8001FFE0038070060018040008040259
:1045A000080402080203F00783F000020000020082
:1045B00004000807FFF807FFF804080800080000D7
:1045C000080000080000080004080807FFF807FFBB
:1045D000F8040008000000000000040008040008BF
:1045E00004000807FFF807FFF804000804000804A7
:1045F00000080000000000000000000000060000AD
:104600000700000104000104000104000307FFFE8D
:1046100007FFFC0400000400000400000400080779
:10462000FFF807FFF8040C08001800003E0004C75C
:10463000800503C80600F8040038040018000008CC
:1046400004000807FFF807FFF8040008000008004E
:104650000008000008000008000008000018000022
:104660006000000004000807FFF807800807FC004E
:10467000007FC00003F80007C0007800078008072B
:10468000FFF807FFF804000804000807FFF8070018
:104690000803C00000E000003800001E0000070012
:1046A0000001C00400F007FFF80400000000000053
:1046B0007F8001FFE00380700600180400080400FA
:1046C0000806001803003001FFE0007F80000000B2
:1046D00004000807FFF807FFF804040804040004B6
:1046E0000400040400040400060C0003F80001F0B8
:1046F00000000000000000007F8001FFE0038070E8
:104700000600880400880400C806003C03003E013F
:10471000FFE6007F8400000004000807FFF807FFA1
:10472000F8040808040800040C00040F00040BC07F
:104730000610F003F03801E0080000080000000156
:10474000E0F803F030063010041808041808040CD0
:1047500008040C080206180207F00781E0000000B8
:1047600001800006000004000004000004000807A7
:10477000FFF807FFF804000804000004000006002A
:104780000001800004000007FFE007FFF0040018AC
:1047900000000800000800000800000800000804ED
:1047A000001007FFE004000004000006000007E01E
:1047B0000007FE00041FE00001F80000380001E0DF
:1047C000043E0007C00006000004000004000007CB
:1047D000E00007FFC0041FF80007C007F80007FF4C
:1047E00080043FF80007C004F80007000004000040
:1047F00000000004000806001807C07805F1C80092
:104800003E00001F800463E80780F80600180400DB
:104810000800000004000006000007800007E00810
:10482000047C08001FF80007F800180804E00807D7
:10483000000006000004000000000001000806005F
:10484000380400F80403E8040F08047C0805F008A5
:1048500007C0080700180400600000000000000006
:1048600000000000000000000000003FFFFE2000EC
:1048700002200002200002200002200002000000AE
:1048800000000000000008000007000000C0000059
:1048900038000006000001C000003000000E0000DB
:1048A00001000000000000000000200002200002C3
:1048B0002000022000022000023FFFFE0000000056
:1048C00000000000000000000000000000000000E8
:1048D0000008000010000030000020000030000040
:1048E00010000008000000000000000000000100AF
:1048F00000010000010000010000010000010000B3
:1049000001000001000001000001000001000001A1
:104910000000000000000000002000002000001047
:104920000000100000000000000000000000000077
:10493000000000000000000000F00019F8001B1843
:10494000002208002608002408002410003FF80078
:104950001FF800000800001800000004000007FF16
:10496000F80FFFF0001818001008002008002008B9
:10497000003018001FF0000FC00000000000000011
:1049800007C0001FF0001830002008002008002099
:1049900008003C08001C100000600000000000003F
:1049A0000000000007C0001FF000381800200800B9
:1049B000200800200804101007FFF80FFFF0000087
:1049C000100000000000000000000007C0001FF001
:1049D00000123000221800220800220800320800CD
:1049E0001E10000E2000000000000000200000202B
:1049F0000800200801FFF803FFF80620080420083B
:104A00000420080720000300000000000000000050
:104A1000000E000E6E001FF30031B10020B1002027
:104A2000B1003191001F13002E1E00200E00300037
:104A300000000004000807FFF80FFFF8001008004E
:104A40002000002000002008003FF8001FF80000B0
:104A500008000000000000000000002008002008FE
:104A6000002008063FF8063FF80000080000080094
:104A7000000800000000000000000000000000002E
:104A800003000003002001002001002003063FFE78
:104A9000063FFC00000000000000000000000004D1
:104AA000000807FFF80FFFF8000188000300002F3F
:104AB000C00038F80020380020080000080000007E
:104AC00000000000000004000804000804000807BB
:104AD000FFF80FFFF80000080000080000080000C1
:104AE00000000000002008003FF8003FF800100818
:104AF000002000003FF8003FF800100800200000F0
:104B00003FF8003FF8000008000000002008003FC8
:104B1000F8003FF8001008001000002000002008F6
:104B2000003FF8001FF8000008000000000000002F
:104B300007C0000FF00018300030080020080020E7
:104B400008003008001830000FF00007C000000017
:104B5000000000002001003FFF003FFF0010110097
:104B60002009002008002008003038001FF0000F46
:104B7000C00000000000000007C0001FF00038184F
:104B8000002008002008002009001011001FFF006D
:104B90003FFF000001000000002008002008002066
:104BA00008003FF8003FF80008080010080020083F
:104BB0000020000030000030000000000000000075
:104BC0000000000C78001E180033080023080021A4
:104BD000080021880021980030F0003860000000B3
:104BE00000000000200000200000200000FFF00373
:104BF000FFF8002008002008002008000030000016
:104C000000000000000000002000003FF0007FF8DE
:104C1000000018000008000008002010003FF80005
:104C20007FF00000100000000000000020000030B5
:104C300000003C00003F800023F00000780000707E
:104C4000002380003C000030000020000020000015
:104C50003C00003FE00023F80000E0002700003E99
:104C600000003FE00021F80001E0003E00002000CD
:104C7000000000002008002008003838003E6800CE
:104C800027800003C8002CF80038380020180020C6
:104C900008000000000000002000003003003C017C
:104CA000003F830023EC000070002380003C0000E4
:104CB000200000200000000000000000000000387C
:104CC000080020380020F80023E8002F88003E0864
:104CD00000380800201800007000000000000000EC
:104CE00000000000000000000000000008000014A8
:104CF000001FF7FC3000062000020000000000004A
:104D000000000000000000000000000000000000A3
:104D10000000FFFFFF000000000000000000000096
:104D2000000000000000000000002000023000062B
:104D30001FF7FC0014000008000000000000000045
:104D400000000000000000000000001800006000EB
:104D5000004000004000002000001000000800009B
:104D60000400000400000C00001000000400000813
:104D70000000000000000002000100001000000020
:104D800046726964617900004D6F6E64617900005C
:104D900053756E6461790000536174657264617962
:104DA000000000005765646E65736461790000005F
:104DB00054756573646179005468757273646179C0
:104DC00000000000F44E0008000000203400000045
:104DD0006C010008284F0008340000201407000070
:104DE000880100081001000043000000F8FFFFFFE9
:104DF00000404040404040404040414141414140EE
:104E000040404040404040404040404040404040A2
:104E10004005020202020202020202020202020231
:104E20000220202020202020202020020202020236
:104E3000020290909090909010101010101010108E
:104E4000101010101010101010101010020202029A
:104E500002028888888888880808080808080808DE
:104E600008080808080808080808080802020202DA
:104E700040000000000000000000000000000000F2
:104E80000000000000000000000000000000000022
:104E90000000000000000000000000000000000012
:104EA0000000000000000000000000000000000002
:104EB00000000000000000000000000000000000F2
:104EC00000000000000000000000000000000000E2
:104ED00000000000000000000000000000000000D2
:104EE00000000000000000000000000000000000C2
:104EF00000000000000000000000000000000000B2
:104F000000000000904D0008884D0008B04D0008DA
:104F1000A44D0008B84D0008804D0008984D0008C9
:084F200000000000FFFF00008B
:0400000508000131BD
:00000001FF
